{
  "contractName": "Bank",
  "abi": [
    {
      "constant": true,
      "inputs": [],
      "name": "balance",
      "outputs": [
        {
          "name": "",
          "type": "uint256"
        }
      ],
      "payable": false,
      "stateMutability": "view",
      "type": "function"
    },
    {
      "constant": true,
      "inputs": [
        {
          "name": "",
          "type": "uint256"
        }
      ],
      "name": "depositants",
      "outputs": [
        {
          "name": "",
          "type": "address"
        }
      ],
      "payable": false,
      "stateMutability": "view",
      "type": "function"
    },
    {
      "constant": true,
      "inputs": [
        {
          "name": "",
          "type": "address"
        }
      ],
      "name": "pendingWithdrawals",
      "outputs": [
        {
          "name": "",
          "type": "uint256"
        }
      ],
      "payable": false,
      "stateMutability": "view",
      "type": "function"
    },
    {
      "constant": true,
      "inputs": [
        {
          "name": "",
          "type": "address"
        }
      ],
      "name": "deposits",
      "outputs": [
        {
          "name": "",
          "type": "uint256"
        }
      ],
      "payable": false,
      "stateMutability": "view",
      "type": "function"
    },
    {
      "inputs": [],
      "payable": false,
      "stateMutability": "nonpayable",
      "type": "constructor"
    },
    {
      "anonymous": false,
      "inputs": [
        {
          "indexed": false,
          "name": "depositant",
          "type": "address"
        },
        {
          "indexed": false,
          "name": "amount",
          "type": "uint256"
        }
      ],
      "name": "Deposited",
      "type": "event"
    },
    {
      "anonymous": false,
      "inputs": [
        {
          "indexed": false,
          "name": "depositant",
          "type": "address"
        },
        {
          "indexed": false,
          "name": "amount",
          "type": "uint256"
        }
      ],
      "name": "Withdrawn",
      "type": "event"
    },
    {
      "anonymous": false,
      "inputs": [
        {
          "indexed": false,
          "name": "from",
          "type": "address"
        },
        {
          "indexed": false,
          "name": "to",
          "type": "address"
        },
        {
          "indexed": false,
          "name": "amount",
          "type": "uint256"
        }
      ],
      "name": "TransferOffered",
      "type": "event"
    },
    {
      "anonymous": false,
      "inputs": [
        {
          "indexed": false,
          "name": "receiver",
          "type": "address"
        },
        {
          "indexed": false,
          "name": "amount",
          "type": "uint256"
        }
      ],
      "name": "TransferAccepted",
      "type": "event"
    },
    {
      "anonymous": false,
      "inputs": [
        {
          "indexed": false,
          "name": "msgvalue",
          "type": "uint256"
        },
        {
          "indexed": false,
          "name": "deposit",
          "type": "uint256"
        }
      ],
      "name": "Debug",
      "type": "event"
    },
    {
      "constant": true,
      "inputs": [],
      "name": "depositantCount",
      "outputs": [
        {
          "name": "",
          "type": "uint256"
        }
      ],
      "payable": false,
      "stateMutability": "view",
      "type": "function"
    },
    {
      "constant": false,
      "inputs": [],
      "name": "deposit",
      "outputs": [],
      "payable": true,
      "stateMutability": "payable",
      "type": "function"
    },
    {
      "constant": false,
      "inputs": [
        {
          "name": "amount",
          "type": "uint256"
        }
      ],
      "name": "withdraw",
      "outputs": [],
      "payable": false,
      "stateMutability": "nonpayable",
      "type": "function"
    },
    {
      "constant": false,
      "inputs": [
        {
          "name": "to",
          "type": "address"
        },
        {
          "name": "amount",
          "type": "uint256"
        }
      ],
      "name": "offerTransfer",
      "outputs": [],
      "payable": false,
      "stateMutability": "nonpayable",
      "type": "function"
    },
    {
      "constant": false,
      "inputs": [],
      "name": "acceptTransfer",
      "outputs": [],
      "payable": false,
      "stateMutability": "nonpayable",
      "type": "function"
    }
  ],
  "bytecode": "0x608060405234801561001057600080fd5b5060008081905550610de5806100276000396000f300608060405260043610610099576000357c0100000000000000000000000000000000000000000000000000000000900463ffffffff1680632e1a7d4d1461009e5780633d714297146100cb578063547eeac114610118578063b69ef8a81461012f578063d0e30db01461015a578063d47814c014610164578063e877212b1461018f578063f3f43703146101fc578063fc7e286d14610253575b600080fd5b3480156100aa57600080fd5b506100c9600480360381019080803590602001909291905050506102aa565b005b3480156100d757600080fd5b50610116600480360381019080803573ffffffffffffffffffffffffffffffffffffffff1690602001909291908035906020019092919050505061052d565b005b34801561012457600080fd5b5061012d61090e565b005b34801561013b57600080fd5b50610144610a99565b6040518082815260200191505060405180910390f35b610162610a9f565b005b34801561017057600080fd5b50610179610d09565b6040518082815260200191505060405180910390f35b34801561019b57600080fd5b506101ba60048036038101908080359060200190929190505050610d16565b604051808273ffffffffffffffffffffffffffffffffffffffff1673ffffffffffffffffffffffffffffffffffffffff16815260200191505060405180910390f35b34801561020857600080fd5b5061023d600480360381019080803573ffffffffffffffffffffffffffffffffffffffff169060200190929190505050610d54565b6040518082815260200191505060405180910390f35b34801561025f57600080fd5b50610294600480360381019080803573ffffffffffffffffffffffffffffffffffffffff169060200190929190505050610d6c565b6040518082815260200191505060405180910390f35b80600160003373ffffffffffffffffffffffffffffffffffffffff1673ffffffffffffffffffffffffffffffffffffffff168152602001908152602001600020548111151515610388576040517f08c379a000000000000000000000000000000000000000000000000000000000815260040180806020018281038252602b8152602001807f596f75206861766520696e73756666696369656e742066756e647320696e207981526020017f6f7572206163636f756e7400000000000000000000000000000000000000000081525060400191505060405180910390fd5b6103da82600160003373ffffffffffffffffffffffffffffffffffffffff1673ffffffffffffffffffffffffffffffffffffffff16815260200190815260200160002054610d8490919063ffffffff16565b600160003373ffffffffffffffffffffffffffffffffffffffff1673ffffffffffffffffffffffffffffffffffffffff1681526020019081526020016000208190555061043282600054610d8490919063ffffffff16565b6000819055503373ffffffffffffffffffffffffffffffffffffffff166108fc839081150290604051600060405180830381858888f1935050505015801561047e573d6000803e3d6000fd5b507f7084f5476618d8e60b11ef0d7d3f06914655adb8793e28ff7f018d4c76d505d533600160003373ffffffffffffffffffffffffffffffffffffffff1673ffffffffffffffffffffffffffffffffffffffff16815260200190815260200160002054604051808373ffffffffffffffffffffffffffffffffffffffff1673ffffffffffffffffffffffffffffffffffffffff1681526020018281526020019250505060405180910390a15050565b600160003373ffffffffffffffffffffffffffffffffffffffff1673ffffffffffffffffffffffffffffffffffffffff16815260200190815260200160002054341115151561060a576040517f08c379a000000000000000000000000000000000000000000000000000000000815260040180806020018281038252602b8152602001807f596f75206861766520696e73756666696369656e742066756e647320696e207981526020017f6f7572206163636f756e7400000000000000000000000000000000000000000081525060400191505060405180910390fd5b6000341115156106a8576040517f08c379a000000000000000000000000000000000000000000000000000000000815260040180806020018281038252602e8152602001807f546865207472616e73616374696f6e2076616c7565206d75737420626520626981526020017f67676572207468616e207a65726f00000000000000000000000000000000000081525060400191505060405180910390fd5b7fad7c87b11456fab3d69245f95442061bce96cb3c345293507ec8bae59023990f81600160003373ffffffffffffffffffffffffffffffffffffffff1673ffffffffffffffffffffffffffffffffffffffff16815260200190815260200160002054604051808381526020018281526020019250505060405180910390a161077881600160003373ffffffffffffffffffffffffffffffffffffffff1673ffffffffffffffffffffffffffffffffffffffff16815260200190815260200160002054610d8490919063ffffffff16565b600160003373ffffffffffffffffffffffffffffffffffffffff1673ffffffffffffffffffffffffffffffffffffffff168152602001908152602001600020819055506107d081600054610d8490919063ffffffff16565b60008190555061082881600260008573ffffffffffffffffffffffffffffffffffffffff1673ffffffffffffffffffffffffffffffffffffffff16815260200190815260200160002054610d9d90919063ffffffff16565b600260008473ffffffffffffffffffffffffffffffffffffffff1673ffffffffffffffffffffffffffffffffffffffff168152602001908152602001600020819055507f8ee7af8a0c22ffe0b5e6ef90a913746b8b0187176b340b04265e8aaa85d124d2338383604051808473ffffffffffffffffffffffffffffffffffffffff1673ffffffffffffffffffffffffffffffffffffffff1681526020018373ffffffffffffffffffffffffffffffffffffffff1673ffffffffffffffffffffffffffffffffffffffff168152602001828152602001935050505060405180910390a15050565b600080600260003373ffffffffffffffffffffffffffffffffffffffff1673ffffffffffffffffffffffffffffffffffffffff1681526020019081526020016000205411151561095d57600080fd5b600260003373ffffffffffffffffffffffffffffffffffffffff1673ffffffffffffffffffffffffffffffffffffffff1681526020019081526020016000205490506000600260003373ffffffffffffffffffffffffffffffffffffffff1673ffffffffffffffffffffffffffffffffffffffff168152602001908152602001600020819055503373ffffffffffffffffffffffffffffffffffffffff166108fc829081150290604051600060405180830381858888f19350505050158015610a2a573d6000803e3d6000fd5b507fc93ed77904a37c61aa9f7d5507fffddf14e284b09c2a5f03a78d4832e56359333382604051808373ffffffffffffffffffffffffffffffffffffffff1673ffffffffffffffffffffffffffffffffffffffff1681526020018281526020019250505060405180910390a150565b60005481565b600034111515610b3d576040517f08c379a000000000000000000000000000000000000000000000000000000000815260040180806020018281038252602e8152602001807f546865207472616e73616374696f6e2076616c7565206d75737420626520626981526020017f67676572207468616e207a65726f00000000000000000000000000000000000081525060400191505060405180910390fd5b6000600160003373ffffffffffffffffffffffffffffffffffffffff1673ffffffffffffffffffffffffffffffffffffffff168152602001908152602001600020541415610bec5760033390806001815401808255809150509060018203906000526020600020016000909192909190916101000a81548173ffffffffffffffffffffffffffffffffffffffff021916908373ffffffffffffffffffffffffffffffffffffffff160217905550505b610c3e34600160003373ffffffffffffffffffffffffffffffffffffffff1673ffffffffffffffffffffffffffffffffffffffff16815260200190815260200160002054610d9d90919063ffffffff16565b600160003373ffffffffffffffffffffffffffffffffffffffff1673ffffffffffffffffffffffffffffffffffffffff16815260200190815260200160002081905550610c9634600054610d9d90919063ffffffff16565b6000819055507f2da466a7b24304f47e87fa2e1e5a81b9831ce54fec19055ce277ca2f39ba42c43334604051808373ffffffffffffffffffffffffffffffffffffffff1673ffffffffffffffffffffffffffffffffffffffff1681526020018281526020019250505060405180910390a1565b6000600380549050905090565b600381815481101515610d2557fe5b906000526020600020016000915054906101000a900473ffffffffffffffffffffffffffffffffffffffff1681565b60026020528060005260406000206000915090505481565b60016020528060005260406000206000915090505481565b6000828211151515610d9257fe5b818303905092915050565b60008183019050828110151515610db057fe5b809050929150505600a165627a7a72305820d8e1cf1256d9c232113fa6a743d7506ef9cf0d89f46f130ed867e3432fa275580029",
  "source": "pragma solidity ^0.4.23;\n\nimport \"openzeppelin-solidity/contracts/math/SafeMath.sol\";\n\ncontract Bank {\n  using SafeMath for uint256;\n\n  uint256 public balance;\n  \n  mapping(address => uint256) public deposits;\n\n  mapping(address => uint256) public pendingWithdrawals;\n\n  address[] public depositants;\n\n  constructor() public {\n    balance = 0;\n  }\n\n  event Deposited(address depositant, uint256 amount);\n  event Withdrawn(address depositant, uint256 amount);\n  event TransferOffered(address from, address to, uint256 amount);\n  event TransferAccepted(address receiver, uint256 amount);\n  event Debug(uint256 msgvalue, uint256 deposit);\n\n  modifier hasBalance(uint256 amount) {\n    require(\n      amount <= deposits[msg.sender],\n      \"You have insufficient funds in your account\"\n    );\n    _;\n  }\n\n  modifier hasOwnBalance() {\n    require(\n      msg.value <= deposits[msg.sender],\n      \"You have insufficient funds in your account\"\n    );\n    _;\n  }\n\n  modifier valueIsPositive() {\n    require(\n      msg.value > 0, \n      \"The transaction value must be bigger than zero\"\n    );\n    _;\n  }\n\n  modifier validTransfer() {\n    require(\n      deposits[msg.sender] >= msg.value,\n      \"You have insufficient money in your deposit to make this transfer\"\n    );\n    _;\n  }\n\n  modifier hasWithdrawals() {\n    require(pendingWithdrawals[msg.sender] > 0);\n    _;\n  }\n\n  function depositantCount() public view returns (uint) {\n    return depositants.length;\n  }\n\n  function deposit() public payable \n  valueIsPositive() {\n    if (deposits[msg.sender] == 0) {\n      depositants.push(msg.sender);\n    }\n\n    deposits[msg.sender] = deposits[msg.sender].add(msg.value);\n    balance = balance.add(msg.value);\n\n    emit Deposited(msg.sender, msg.value);\n  }\n\n  function withdraw(uint256 amount) public \n  hasBalance(amount) {\n    deposits[msg.sender] = deposits[msg.sender].sub(amount);\n    balance = balance.sub(amount);\n    msg.sender.transfer(amount);\n    \n    emit Withdrawn(msg.sender, deposits[msg.sender]);\n  }\n\n  function offerTransfer(address to, uint256 amount) public\n  hasOwnBalance\n  valueIsPositive {\n    emit Debug(amount, deposits[msg.sender]);\n    deposits[msg.sender] = deposits[msg.sender].sub(amount);\n    balance = balance.sub(amount);\n    pendingWithdrawals[to] = pendingWithdrawals[to].add(amount);\n\n    emit TransferOffered(msg.sender, to, amount);\n  }\n\n  function acceptTransfer() public\n  hasWithdrawals {\n    uint amount = pendingWithdrawals[msg.sender];\n    pendingWithdrawals[msg.sender] = 0;\n    msg.sender.transfer(amount);\n\n    emit TransferAccepted(msg.sender, amount);\n  }\n\n}\n\n",
  "sourcePath": "/Users/carlosnovaduarte/Fractal/carlos/bank-smart-contract/contracts/Bank.sol",
  "compiler": {
    "name": "solc",
    "version": "0.4.24+commit.e67f0147.Emscripten.clang"
  },
  "schemaVersion": "2.0.1",
  "updatedAt": "2018-07-17T15:59:48.105Z"
}